{
  "contractName": "Dao",
  "abi": [
    {
      "inputs": [
        {
          "internalType": "address",
          "name": "_admin",
          "type": "address"
        },
        {
          "internalType": "address",
          "name": "_token",
          "type": "address"
        }
      ],
      "stateMutability": "nonpayable",
      "type": "constructor"
    },
    {
      "anonymous": false,
      "inputs": [
        {
          "indexed": false,
          "internalType": "address",
          "name": "member_",
          "type": "address"
        },
        {
          "indexed": false,
          "internalType": "string",
          "name": "message",
          "type": "string"
        }
      ],
      "name": "NewMember",
      "type": "event"
    },
    {
      "anonymous": false,
      "inputs": [
        {
          "indexed": false,
          "internalType": "uint256",
          "name": "projectId",
          "type": "uint256"
        },
        {
          "indexed": false,
          "internalType": "enum Dao.ProposalVotingState",
          "name": "result",
          "type": "uint8"
        },
        {
          "indexed": false,
          "internalType": "uint256",
          "name": "yesVotes",
          "type": "uint256"
        },
        {
          "indexed": false,
          "internalType": "uint256",
          "name": "noVotes",
          "type": "uint256"
        }
      ],
      "name": "Result",
      "type": "event"
    },
    {
      "anonymous": false,
      "inputs": [
        {
          "indexed": false,
          "internalType": "string",
          "name": "projectName",
          "type": "string"
        }
      ],
      "name": "SubmittedProjectProposal",
      "type": "event"
    },
    {
      "anonymous": false,
      "inputs": [
        {
          "indexed": false,
          "internalType": "uint256",
          "name": "projectId_",
          "type": "uint256"
        },
        {
          "indexed": false,
          "internalType": "uint256",
          "name": "yesVotes",
          "type": "uint256"
        },
        {
          "indexed": false,
          "internalType": "uint256",
          "name": "noVotes",
          "type": "uint256"
        }
      ],
      "name": "Votes",
      "type": "event"
    },
    {
      "inputs": [
        {
          "internalType": "address",
          "name": "",
          "type": "address"
        }
      ],
      "name": "DaoMembers",
      "outputs": [
        {
          "internalType": "address",
          "name": "member",
          "type": "address"
        },
        {
          "internalType": "uint256",
          "name": "votingPower",
          "type": "uint256"
        },
        {
          "internalType": "bool",
          "name": "exists",
          "type": "bool"
        }
      ],
      "stateMutability": "view",
      "type": "function"
    },
    {
      "inputs": [],
      "name": "maxFundingDuration",
      "outputs": [
        {
          "internalType": "uint256",
          "name": "",
          "type": "uint256"
        }
      ],
      "stateMutability": "view",
      "type": "function"
    },
    {
      "inputs": [
        {
          "internalType": "uint256",
          "name": "",
          "type": "uint256"
        }
      ],
      "name": "project_Proposal",
      "outputs": [
        {
          "internalType": "address",
          "name": "projectOwner",
          "type": "address"
        },
        {
          "internalType": "string",
          "name": "projectName",
          "type": "string"
        },
        {
          "internalType": "string",
          "name": "projectDescription",
          "type": "string"
        },
        {
          "internalType": "uint256",
          "name": "createdAt",
          "type": "uint256"
        },
        {
          "internalType": "uint256",
          "name": "yesVotes",
          "type": "uint256"
        },
        {
          "internalType": "uint256",
          "name": "noVotes",
          "type": "uint256"
        },
        {
          "internalType": "enum Dao.ProposalVotingState",
          "name": "proposalVotingState",
          "type": "uint8"
        }
      ],
      "stateMutability": "view",
      "type": "function"
    },
    {
      "inputs": [],
      "name": "votingDuration",
      "outputs": [
        {
          "internalType": "uint256",
          "name": "",
          "type": "uint256"
        }
      ],
      "stateMutability": "view",
      "type": "function"
    },
    {
      "inputs": [
        {
          "internalType": "address",
          "name": "_member",
          "type": "address"
        },
        {
          "internalType": "uint256",
          "name": "_votingPower",
          "type": "uint256"
        }
      ],
      "name": "addDaoMember",
      "outputs": [
        {
          "internalType": "bool",
          "name": "",
          "type": "bool"
        }
      ],
      "stateMutability": "nonpayable",
      "type": "function"
    },
    {
      "inputs": [
        {
          "internalType": "address",
          "name": "_projectOwner",
          "type": "address"
        },
        {
          "internalType": "string",
          "name": "_projectName",
          "type": "string"
        },
        {
          "internalType": "string",
          "name": "_projectDescription",
          "type": "string"
        }
      ],
      "name": "SubmitProjectProposal",
      "outputs": [],
      "stateMutability": "nonpayable",
      "type": "function"
    },
    {
      "inputs": [
        {
          "internalType": "uint256",
          "name": "_projectId",
          "type": "uint256"
        },
        {
          "internalType": "uint8",
          "name": "votingChoice",
          "type": "uint8"
        }
      ],
      "name": "vote",
      "outputs": [],
      "stateMutability": "nonpayable",
      "type": "function"
    },
    {
      "inputs": [
        {
          "internalType": "uint256",
          "name": "projectId_",
          "type": "uint256"
        }
      ],
      "name": "updateVotingState",
      "outputs": [],
      "stateMutability": "nonpayable",
      "type": "function"
    }
  ],
  "bytecode": "0x60806040523480156200001157600080fd5b5060405162001e2638038062001e2683398181016040528101906200003791906200015e565b600073ffffffffffffffffffffffffffffffffffffffff168273ffffffffffffffffffffffffffffffffffffffff161415620000aa576040517f08c379a0000000000000000000000000000000000000000000000000000000008152600401620000a190620001cc565b60405180910390fd5b62093a8060018190555062278d0060038190555081600960006101000a81548173ffffffffffffffffffffffffffffffffffffffff021916908373ffffffffffffffffffffffffffffffffffffffff160217905550806000806101000a81548173ffffffffffffffffffffffffffffffffffffffff021916908373ffffffffffffffffffffffffffffffffffffffff1602179055505050620002a1565b600081519050620001588162000287565b92915050565b6000806040838503121562000178576200017762000233565b5b6000620001888582860162000147565b92505060206200019b8582860162000147565b9150509250929050565b6000620001b4602183620001ee565b9150620001c18262000238565b604082019050919050565b60006020820190508181036000830152620001e781620001a5565b9050919050565b600082825260208201905092915050565b60006200020c8262000213565b9050919050565b600073ffffffffffffffffffffffffffffffffffffffff82169050919050565b600080fd5b7f4f6e6c792041646d696e2063616e2063616c6c20746869732066756e6374696f60008201527f6e00000000000000000000000000000000000000000000000000000000000000602082015250565b6200029281620001ff565b81146200029e57600080fd5b50565b611b7580620002b16000396000f3fe608060405234801561001057600080fd5b50600436106100885760003560e01c80638f16f7891161005b5780638f16f7891461012f578063943e82161461015f578063bea846d11461017b578063e27e13fb1461019957610088565b8063132002fc1461008d5780631d560028146100ab5780636ceabff1146100e15780636f4e52a7146100fd575b600080fd5b6100956101b5565b6040516100a2919061155b565b60405180910390f35b6100c560048036038101906100c091906110d7565b6101bb565b6040516100d8979695949392919061133c565b60405180910390f35b6100fb60048036038101906100f691906110d7565b61033a565b005b61011760048036038101906101129190610fdf565b61047d565b604051610126939291906113e7565b60405180910390f35b61014960048036038101906101449190611097565b6104d4565b604051610156919061141e565b60405180910390f35b61017960048036038101906101749190611131565b610720565b005b610183610bf5565b604051610190919061155b565b60405180910390f35b6101b360048036038101906101ae919061100c565b610bfb565b005b60015481565b60066020528060005260406000206000915090508060000160009054906101000a900473ffffffffffffffffffffffffffffffffffffffff169080600101805461020490611776565b80601f016020809104026020016040519081016040528092919081815260200182805461023090611776565b801561027d5780601f106102525761010080835404028352916020019161027d565b820191906000526020600020905b81548152906001019060200180831161026057829003601f168201915b50505050509080600201805461029290611776565b80601f01602080910402602001604051908101604052809291908181526020018280546102be90611776565b801561030b5780601f106102e05761010080835404028352916020019161030b565b820191906000526020600020905b8154815290600101906020018083116102ee57829003601f168201915b5050505050908060030154908060040154908060050154908060060160009054906101000a900460ff16905087565b600454811061034857600080fd5b600060066000838152602001908152602001600020905060015481600301546103719190611664565b4210156103b3576040517f08c379a00000000000000000000000000000000000000000000000000000000081526004016103aa9061145b565b60405180910390fd5b8060050154816004015411156103f55760028160060160006101000a81548160ff021916908360028111156103eb576103ea611851565b5b0217905550610423565b60008160060160006101000a81548160ff0219169083600281111561041d5761041c611851565b5b02179055505b7f6c20d0c2ba91e13dd0467a2a866c964b629417a84bea20c3c432ba15305b91d7828260060160009054906101000a900460ff16836004015484600501546040516104719493929190611576565b60405180910390a15050565b60076020528060005260406000206000915090508060000160009054906101000a900473ffffffffffffffffffffffffffffffffffffffff16908060010154908060020160009054906101000a900460ff16905083565b6000600960009054906101000a900473ffffffffffffffffffffffffffffffffffffffff1673ffffffffffffffffffffffffffffffffffffffff163373ffffffffffffffffffffffffffffffffffffffff1614610566576040517f08c379a000000000000000000000000000000000000000000000000000000000815260040161055d9061147b565b60405180910390fd5b6000600760008573ffffffffffffffffffffffffffffffffffffffff1673ffffffffffffffffffffffffffffffffffffffff1681526020019081526020016000209050838160000160006101000a81548173ffffffffffffffffffffffffffffffffffffffff021916908373ffffffffffffffffffffffffffffffffffffffff16021790555082816001018190555060018160020160006101000a81548160ff02191690831515021790555060088190806001815401808255809150506001900390600052602060002090600302016000909190919091506000820160009054906101000a900473ffffffffffffffffffffffffffffffffffffffff168160000160006101000a81548173ffffffffffffffffffffffffffffffffffffffff021916908373ffffffffffffffffffffffffffffffffffffffff160217905550600182015481600101556002820160009054906101000a900460ff168160020160006101000a81548160ff02191690831515021790555050507f2373fd48c1688b65732996810a391f6ad6d243ae22414ffdbb4e3495c8302e438460405161070d91906113b9565b60405180910390a1600191505092915050565b6000600760003373ffffffffffffffffffffffffffffffffffffffff1673ffffffffffffffffffffffffffffffffffffffff16815260200190815260200160002060010154116107a5576040517f08c379a000000000000000000000000000000000000000000000000000000000815260040161079c906114db565b60405180910390fd5b60045482106107b357600080fd5b6000600660008481526020019081526020016000209050600160028111156107de576107dd611851565b5b8160060160009054906101000a900460ff16600281111561080257610801611851565b5b1461080c57600080fd5b600154816003015461081e9190611664565b421115610860576040517f08c379a0000000000000000000000000000000000000000000000000000000008152600401610857906114bb565b60405180910390fd5b6000600281111561087457610873611851565b5b8160070160003373ffffffffffffffffffffffffffffffffffffffff1673ffffffffffffffffffffffffffffffffffffffff16815260200190815260200160002060009054906101000a900460ff1660028111156108d5576108d4611851565b5b14610915576040517f08c379a000000000000000000000000000000000000000000000000000000000815260040161090c9061149b565b60405180910390fd5b60038260ff161061095b576040517f08c379a0000000000000000000000000000000000000000000000000000000008152600401610952906114fb565b60405180910390fd5b60008260ff16600281111561097357610972611851565b5b90506000600760003373ffffffffffffffffffffffffffffffffffffffff1673ffffffffffffffffffffffffffffffffffffffff1681526020019081526020016000206040518060600160405290816000820160009054906101000a900473ffffffffffffffffffffffffffffffffffffffff1673ffffffffffffffffffffffffffffffffffffffff1673ffffffffffffffffffffffffffffffffffffffff168152602001600182015481526020016002820160009054906101000a900460ff1615151515815250509050600280811115610a5157610a50611851565b5b826002811115610a6457610a63611851565b5b1415610af4578060200151836004016000828254610a829190611664565b9250508190555060028360070160003373ffffffffffffffffffffffffffffffffffffffff1673ffffffffffffffffffffffffffffffffffffffff16815260200190815260200160002060006101000a81548160ff02191690836002811115610aee57610aed611851565b5b02179055505b60016002811115610b0857610b07611851565b5b826002811115610b1b57610b1a611851565b5b1415610bab578060200151836005016000828254610b399190611664565b9250508190555060018360070160003373ffffffffffffffffffffffffffffffffffffffff1673ffffffffffffffffffffffffffffffffffffffff16815260200190815260200160002060006101000a81548160ff02191690836002811115610ba557610ba4611851565b5b02179055505b7f8d9d239f422ce30d377c9077168077f6368dad1a42e411ae9a4e997bb42517598584600401548560050154604051610be6939291906115bb565b60405180910390a15050505050565b60035481565b60008060009054906101000a900473ffffffffffffffffffffffffffffffffffffffff1690506103e88173ffffffffffffffffffffffffffffffffffffffff166370a08231866040518263ffffffff1660e01b8152600401610c5d9190611321565b60206040518083038186803b158015610c7557600080fd5b505afa158015610c89573d6000803e3d6000fd5b505050506040513d601f19601f82011682018060405250810190610cad9190611104565b1015610cee576040517f08c379a0000000000000000000000000000000000000000000000000000000008152600401610ce59061151b565b60405180910390fd5b600073ffffffffffffffffffffffffffffffffffffffff168473ffffffffffffffffffffffffffffffffffffffff161415610d5e576040517f08c379a0000000000000000000000000000000000000000000000000000000008152600401610d559061153b565b60405180910390fd5b60006006600060045481526020019081526020016000209050848160000160006101000a81548173ffffffffffffffffffffffffffffffffffffffff021916908373ffffffffffffffffffffffffffffffffffffffff16021790555083816001019080519060200190610dd2929190610e78565b5082816002019080519060200190610deb929190610e78565b5060018160060160006101000a81548160ff02191690836002811115610e1457610e13611851565b5b021790555042816003018190555060046000815480929190610e35906117d9565b91905055507f542ba897915b4a90bfa6c4ac910fb846f8997365f0d6d1d0e2237573843189fe84604051610e699190611439565b60405180910390a15050505050565b828054610e8490611776565b90600052602060002090601f016020900481019282610ea65760008555610eed565b82601f10610ebf57805160ff1916838001178555610eed565b82800160010185558215610eed579182015b82811115610eec578251825591602001919060010190610ed1565b5b509050610efa9190610efe565b5090565b5b80821115610f17576000816000905550600101610eff565b5090565b6000610f2e610f2984611617565b6115f2565b905082815260208101848484011115610f4a57610f496118e3565b5b610f55848285611734565b509392505050565b600081359050610f6c81611afa565b92915050565b600082601f830112610f8757610f866118de565b5b8135610f97848260208601610f1b565b91505092915050565b600081359050610faf81611b11565b92915050565b600081519050610fc481611b11565b92915050565b600081359050610fd981611b28565b92915050565b600060208284031215610ff557610ff46118ed565b5b600061100384828501610f5d565b91505092915050565b600080600060608486031215611025576110246118ed565b5b600061103386828701610f5d565b935050602084013567ffffffffffffffff811115611054576110536118e8565b5b61106086828701610f72565b925050604084013567ffffffffffffffff811115611081576110806118e8565b5b61108d86828701610f72565b9150509250925092565b600080604083850312156110ae576110ad6118ed565b5b60006110bc85828601610f5d565b92505060206110cd85828601610fa0565b9150509250929050565b6000602082840312156110ed576110ec6118ed565b5b60006110fb84828501610fa0565b91505092915050565b60006020828403121561111a576111196118ed565b5b600061112884828501610fb5565b91505092915050565b60008060408385031215611148576111476118ed565b5b600061115685828601610fa0565b925050602061116785828601610fca565b9150509250929050565b61117a816116ba565b82525050565b611189816116cc565b82525050565b61119881611722565b82525050565b60006111a982611648565b6111b38185611653565b93506111c3818560208601611743565b6111cc816118f2565b840191505092915050565b60006111e4601183611653565b91506111ef82611903565b602082019050919050565b6000611207602183611653565b91506112128261192c565b604082019050919050565b600061122a600d83611653565b91506112358261197b565b602082019050919050565b600061124d600983611653565b9150611258826119a4565b602082019050919050565b6000611270600d83611653565b915061127b826119cd565b602082019050919050565b6000611293600c83611653565b915061129e826119f6565b602082019050919050565b60006112b6601183611653565b91506112c182611a1f565b602082019050919050565b60006112d9602a83611653565b91506112e482611a48565b604082019050919050565b60006112fc602683611653565b915061130782611a97565b604082019050919050565b61131b8161170b565b82525050565b60006020820190506113366000830184611171565b92915050565b600060e082019050611351600083018a611171565b8181036020830152611363818961119e565b90508181036040830152611377818861119e565b90506113866060830187611312565b6113936080830186611312565b6113a060a0830185611312565b6113ad60c083018461118f565b98975050505050505050565b60006040820190506113ce6000830184611171565b81810360208301526113df81611240565b905092915050565b60006060820190506113fc6000830186611171565b6114096020830185611312565b6114166040830184611180565b949350505050565b60006020820190506114336000830184611180565b92915050565b60006020820190508181036000830152611453818461119e565b905092915050565b60006020820190508181036000830152611474816111d7565b9050919050565b60006020820190508181036000830152611494816111fa565b9050919050565b600060208201905081810360008301526114b48161121d565b9050919050565b600060208201905081810360008301526114d481611263565b9050919050565b600060208201905081810360008301526114f481611286565b9050919050565b60006020820190508181036000830152611514816112a9565b9050919050565b60006020820190508181036000830152611534816112cc565b9050919050565b60006020820190508181036000830152611554816112ef565b9050919050565b60006020820190506115706000830184611312565b92915050565b600060808201905061158b6000830187611312565b611598602083018661118f565b6115a56040830185611312565b6115b26060830184611312565b95945050505050565b60006060820190506115d06000830186611312565b6115dd6020830185611312565b6115ea6040830184611312565b949350505050565b60006115fc61160d565b905061160882826117a8565b919050565b6000604051905090565b600067ffffffffffffffff821115611632576116316118af565b5b61163b826118f2565b9050602081019050919050565b600081519050919050565b600082825260208201905092915050565b600061166f8261170b565b915061167a8361170b565b9250827fffffffffffffffffffffffffffffffffffffffffffffffffffffffffffffffff038211156116af576116ae611822565b5b828201905092915050565b60006116c5826116eb565b9050919050565b60008115159050919050565b60008190506116e682611ae6565b919050565b600073ffffffffffffffffffffffffffffffffffffffff82169050919050565b6000819050919050565b600060ff82169050919050565b600061172d826116d8565b9050919050565b82818337600083830152505050565b60005b83811015611761578082015181840152602081019050611746565b83811115611770576000848401525b50505050565b6000600282049050600182168061178e57607f821691505b602082108114156117a2576117a1611880565b5b50919050565b6117b1826118f2565b810181811067ffffffffffffffff821117156117d0576117cf6118af565b5b80604052505050565b60006117e48261170b565b91507fffffffffffffffffffffffffffffffffffffffffffffffffffffffffffffffff82141561181757611816611822565b5b600182019050919050565b7f4e487b7100000000000000000000000000000000000000000000000000000000600052601160045260246000fd5b7f4e487b7100000000000000000000000000000000000000000000000000000000600052602160045260246000fd5b7f4e487b7100000000000000000000000000000000000000000000000000000000600052602260045260246000fd5b7f4e487b7100000000000000000000000000000000000000000000000000000000600052604160045260246000fd5b600080fd5b600080fd5b600080fd5b600080fd5b6000601f19601f8301169050919050565b7f566f74696e67206973206f6e676f696e67000000000000000000000000000000600082015250565b7f4f6e6c792041646d696e2063616e2063616c6c20746869732066756e6374696f60008201527f6e00000000000000000000000000000000000000000000000000000000000000602082015250565b7f416c726561647920766f74656400000000000000000000000000000000000000600082015250565b7f7761732041646465640000000000000000000000000000000000000000000000600082015250565b7f566f74696e6720636c6f73656400000000000000000000000000000000000000600082015250565b7f6e6f742061206d656d6265720000000000000000000000000000000000000000600082015250565b7f496e76616c69642053656c656374696f6e000000000000000000000000000000600082015250565b7f48474e3a20496e73756666696369656e7420746f6b656e20746f207375626d6960008201527f742070726f706f73616c00000000000000000000000000000000000000000000602082015250565b7f4f776e6572277320616464726573732063616e6e6f742062652061646472657360008201527f73207a65726f0000000000000000000000000000000000000000000000000000602082015250565b60038110611af757611af6611851565b5b50565b611b03816116ba565b8114611b0e57600080fd5b50565b611b1a8161170b565b8114611b2557600080fd5b50565b611b3181611715565b8114611b3c57600080fd5b5056fea2646970667358221220cb3f4a3b7dd227aeeb349bf7d5d7f340a0d767039578169405c153efee9f33ee64736f6c63430008060033",
  "immutableReferences": {},
  "source": "// SPDX-License-Identifier: GPL-3.0;\npragma solidity ^0.8.0;\nimport '@openzeppelin/contracts/token/ERC20/IERC20.sol';\n\ncontract Dao {\n    // Global Variables\n    address nativeToken;\n    // uint public totalTokenByMembers;\n    uint public votingDuration;\n    uint requiredAmountOfToken;\n    // should be fixed\n    uint public maxFundingDuration;\n    // Proposals\n    struct ProjectProposal {\n        address projectOwner;\n        // address projectWallet;\n        string projectName;\n        string projectDescription;\n        uint createdAt;\n        uint yesVotes;\n        uint noVotes;\n        ProposalVotingState proposalVotingState;\n        mapping(address => Vote) votesByMember;\n        mapping(address => uint) contributor;\n        address[] contributors;\n    }\n    enum ProposalVotingState{\n            REJECTED,\n            ONGOING,\n            APPROVED\n    }\n    uint projectId;\n    ProjectProposal[] ProjectProposals;\n    mapping(uint => ProjectProposal) public project_Proposal;\n    // DAO Members will be added by admin\n    struct DaoMember{\n        address member;\n        uint votingPower;\n        bool exists;\n    }\n    mapping(address => DaoMember) public DaoMembers;\n    DaoMember[] allDaoMembers;\n    // Votes\n    // require that only approved proposal\n    enum Vote { Null, No, Yes }\n    // enum Payment { Start, Ongoing, Closed } // platform\n    \n    // constructor\n    address admin;\n    event Result(uint projectId, ProposalVotingState result, uint yesVotes, uint noVotes);\n    event NewMember(address member_, string message);\n    event SubmittedProjectProposal(string projectName);\n    event Votes(uint projectId_, uint yesVotes, uint noVotes);\n    \n    constructor (address _admin, address _token) {\n        require(_admin != address(0), 'Only Admin can call this function');\n        votingDuration = 7 days;\n        maxFundingDuration = 30 days;\n        admin = _admin;\n        nativeToken = _token;\n    }\n    modifier onlyAdmin(){\n        require(msg.sender == admin, 'Only Admin can call this function');\n        _;\n    }\n    modifier onlyDaoMember(){\n        require(DaoMembers[msg.sender].votingPower > 0, \"not a member\");\n        _;\n    }\n    function addDaoMember(address _member, uint _votingPower) public onlyAdmin returns(bool){\n        DaoMember storage _daoMember = DaoMembers[_member];\n        _daoMember.member =_member;\n         _daoMember.votingPower = _votingPower;\n         _daoMember.exists =  true;\n        allDaoMembers.push(_daoMember);\n        emit NewMember(_member, 'was Added');\n        return true;\n    }\n    // function removeDaoMember(address _member) public onlyAdmin{\n    //     delete DaoMembers[_member];\n    // }\n    // PROPOSAL FUNCTIONS\n    function SubmitProjectProposal(address _projectOwner, string memory _projectName,string memory _projectDescription) public {\n        IERC20 token = IERC20(nativeToken);\n        require (token.balanceOf(_projectOwner) >= 1000, \"HGN: Insufficient token to submit proposal\");\n        require (_projectOwner != address(0), \"Owner's address cannot be address zero\");\n        ProjectProposal storage project =  project_Proposal[projectId];\n        project.projectOwner = _projectOwner;\n        project.projectName = _projectName;\n        project.projectDescription = _projectDescription;\n        project.proposalVotingState = ProposalVotingState.ONGOING;\n        project.createdAt = block.timestamp;\n        projectId++;\n        emit SubmittedProjectProposal(_projectName);\n    }\n    function vote(uint _projectId, uint8 votingChoice) public onlyDaoMember {\n        require (_projectId < projectId);\n        ProjectProposal storage project =  project_Proposal[_projectId];\n        require (project.proposalVotingState == ProposalVotingState.ONGOING);\n        require (block.timestamp <= (project.createdAt + votingDuration), 'Voting closed');\n        require (project.votesByMember[msg.sender] == Vote.Null, 'Already voted');\n        require (votingChoice < 3,'Invalid Selection');\n        Vote vote_ = Vote(votingChoice);\n        DaoMember memory _daoMember = DaoMembers[msg.sender];\n        if (vote_ == Vote.Yes) {\n            project.yesVotes += _daoMember.votingPower;\n            project.votesByMember[msg.sender] = Vote.Yes;\n        }\n        if (vote_ == Vote.No) {\n            project.noVotes += _daoMember.votingPower;\n            project.votesByMember[msg.sender] = Vote.No;\n        }\n        emit Votes(_projectId, project.yesVotes, project.noVotes);\n    }\n    \n    function updateVotingState(uint projectId_) public {\n        require (projectId_ < projectId);\n        ProjectProposal storage project =  project_Proposal[projectId_];\n        require (block.timestamp >= (project.createdAt + votingDuration), 'Voting is ongoing');\n        if (project.yesVotes > project.noVotes) {\n            project.proposalVotingState = ProposalVotingState.APPROVED;\n        } else {\n            project.proposalVotingState = ProposalVotingState.REJECTED;\n        }\n        emit Result(projectId_, project.proposalVotingState, project.yesVotes, project.noVotes);\n    }\n}",
  "sourcePath": "C:\\Users\\user\\Desktop\\HalogenFinance\\contracts\\dao.sol",
  "compiler": {
    "name": "solc",
    "version": "0.8.6+commit.11564f7e.Emscripten.clang"
  },
  "schemaVersion": "3.4.2",
  "updatedAt": "2021-08-08T22:46:23.893Z",
  "devdoc": {
    "kind": "dev",
    "methods": {},
    "version": 1
  },
  "userdoc": {
    "kind": "user",
    "methods": {},
    "version": 1
  }
}