{
  "contractName": "FundProject",
  "abi": [
    {
      "inputs": [
        {
          "internalType": "address",
          "name": "_admin",
          "type": "address"
        }
      ],
      "stateMutability": "nonpayable",
      "type": "constructor"
    },
    {
      "anonymous": false,
      "inputs": [
        {
          "indexed": false,
          "internalType": "address",
          "name": "wallet",
          "type": "address"
        },
        {
          "indexed": false,
          "internalType": "address",
          "name": "from",
          "type": "address"
        },
        {
          "indexed": false,
          "internalType": "address",
          "name": "to",
          "type": "address"
        },
        {
          "indexed": false,
          "internalType": "uint256",
          "name": "createdAt",
          "type": "uint256"
        },
        {
          "indexed": false,
          "internalType": "uint256",
          "name": "unlockDate",
          "type": "uint256"
        },
        {
          "indexed": false,
          "internalType": "uint256",
          "name": "amount",
          "type": "uint256"
        }
      ],
      "name": "Created",
      "type": "event"
    },
    {
      "anonymous": false,
      "inputs": [
        {
          "indexed": false,
          "internalType": "string",
          "name": "projectName",
          "type": "string"
        },
        {
          "indexed": false,
          "internalType": "address",
          "name": "wallet",
          "type": "address"
        },
        {
          "indexed": false,
          "internalType": "uint256",
          "name": "fundRequested",
          "type": "uint256"
        }
      ],
      "name": "createdProject",
      "type": "event"
    },
    {
      "inputs": [
        {
          "internalType": "uint256",
          "name": "",
          "type": "uint256"
        }
      ],
      "name": "OwnerToProject",
      "outputs": [
        {
          "internalType": "string",
          "name": "projectName",
          "type": "string"
        },
        {
          "internalType": "string",
          "name": "projectDescription",
          "type": "string"
        },
        {
          "internalType": "address",
          "name": "projectOwner",
          "type": "address"
        },
        {
          "internalType": "address",
          "name": "projectWallet",
          "type": "address"
        },
        {
          "internalType": "uint256",
          "name": "fundRequested",
          "type": "uint256"
        },
        {
          "internalType": "uint256",
          "name": "fundRaised",
          "type": "uint256"
        },
        {
          "internalType": "uint256",
          "name": "fundingStartDate",
          "type": "uint256"
        },
        {
          "internalType": "uint256",
          "name": "fundingEndDate",
          "type": "uint256"
        },
        {
          "internalType": "uint256",
          "name": "unitPrice",
          "type": "uint256"
        }
      ],
      "stateMutability": "view",
      "type": "function"
    },
    {
      "inputs": [
        {
          "internalType": "address",
          "name": "_user",
          "type": "address"
        }
      ],
      "name": "getWallets",
      "outputs": [
        {
          "internalType": "address[]",
          "name": "",
          "type": "address[]"
        }
      ],
      "stateMutability": "view",
      "type": "function"
    },
    {
      "inputs": [
        {
          "internalType": "address",
          "name": "creator",
          "type": "address"
        },
        {
          "internalType": "address payable",
          "name": "_owner",
          "type": "address"
        },
        {
          "internalType": "uint256",
          "name": "_unlockDate",
          "type": "uint256"
        }
      ],
      "name": "newTimeLockedWallet",
      "outputs": [
        {
          "internalType": "address",
          "name": "walletAddress",
          "type": "address"
        }
      ],
      "stateMutability": "payable",
      "type": "function"
    },
    {
      "inputs": [
        {
          "internalType": "string",
          "name": "_projectName",
          "type": "string"
        },
        {
          "internalType": "string",
          "name": "_projectDescription",
          "type": "string"
        },
        {
          "internalType": "address payable",
          "name": "_projectOwner",
          "type": "address"
        },
        {
          "internalType": "uint256",
          "name": "_fundRequested",
          "type": "uint256"
        },
        {
          "internalType": "uint256",
          "name": "_fundingStartDate",
          "type": "uint256"
        },
        {
          "internalType": "uint256",
          "name": "_fundingEndDate",
          "type": "uint256"
        },
        {
          "internalType": "uint256",
          "name": "_unitPrice",
          "type": "uint256"
        }
      ],
      "name": "createProject",
      "outputs": [
        {
          "internalType": "bool",
          "name": "success",
          "type": "bool"
        }
      ],
      "stateMutability": "nonpayable",
      "type": "function"
    },
    {
      "inputs": [
        {
          "internalType": "address",
          "name": "_tokenContract",
          "type": "address"
        },
        {
          "internalType": "uint256",
          "name": "_projectId",
          "type": "uint256"
        },
        {
          "internalType": "uint256",
          "name": "amount",
          "type": "uint256"
        }
      ],
      "name": "fundProject",
      "outputs": [],
      "stateMutability": "payable",
      "type": "function"
    }
  ],
  "bytecode": "0x60806040523480156200001157600080fd5b50604051620026db380380620026db8339818101604052810190620000379190620000a0565b62278d0060018190555080600260006101000a81548173ffffffffffffffffffffffffffffffffffffffff021916908373ffffffffffffffffffffffffffffffffffffffff1602179055505062000125565b6000815190506200009a816200010b565b92915050565b600060208284031215620000b957620000b862000106565b5b6000620000c98482850162000089565b91505092915050565b6000620000df82620000e6565b9050919050565b600073ffffffffffffffffffffffffffffffffffffffff82169050919050565b600080fd5b6200011681620000d2565b81146200012257600080fd5b50565b6125a680620001356000396000f3fe608060405260043610620000505760003560e01c806305381dba14620000555780632e67018314620000a1578063422c29a414620000e557806349674f551462000129578063b73239c91462000149575b600080fd5b3480156200006257600080fd5b506200008160048036038101906200007b919062000e65565b6200017f565b6040516200009899989796959493929190620011af565b60405180910390f35b348015620000ae57600080fd5b50620000cd6004803603810190620000c7919062000d74565b6200032d565b604051620000dc91906200114e565b60405180910390f35b348015620000f257600080fd5b506200011160048036038101906200010b919062000c58565b62000606565b6040516200012091906200112a565b60405180910390f35b62000147600480360381019062000141919062000ce6565b620006d4565b005b62000167600480360381019062000161919062000c8a565b620008bd565b60405162000176919062001026565b60405180910390f35b6005602052806000526040600020600091509050806000018054620001a49062001586565b80601f0160208091040260200160405190810160405280929190818152602001828054620001d29062001586565b8015620002235780601f10620001f75761010080835404028352916020019162000223565b820191906000526020600020905b8154815290600101906020018083116200020557829003601f168201915b5050505050908060010180546200023a9062001586565b80601f0160208091040260200160405190810160405280929190818152602001828054620002689062001586565b8015620002b95780601f106200028d57610100808354040283529160200191620002b9565b820191906000526020600020905b8154815290600101906020018083116200029b57829003601f168201915b5050505050908060020160009054906101000a900473ffffffffffffffffffffffffffffffffffffffff16908060030160009054906101000a900473ffffffffffffffffffffffffffffffffffffffff16908060040154908060050154908060060154908060070154908060080154905089565b6000600260009054906101000a900473ffffffffffffffffffffffffffffffffffffffff1673ffffffffffffffffffffffffffffffffffffffff163373ffffffffffffffffffffffffffffffffffffffff1614620003c2576040517f08c379a0000000000000000000000000000000000000000000000000000000008152600401620003b9906200125c565b60405180910390fd5b6001548484620003d391906200146c565b10620003de57600080fd5b6200040d600260009054906101000a900473ffffffffffffffffffffffffffffffffffffffff168785620008bd565b600360006101000a81548173ffffffffffffffffffffffffffffffffffffffff021916908373ffffffffffffffffffffffffffffffffffffffff16021790555060006005600060045481526020019081526020016000209050600360009054906101000a900473ffffffffffffffffffffffffffffffffffffffff168160030160006101000a81548173ffffffffffffffffffffffffffffffffffffffff021916908373ffffffffffffffffffffffffffffffffffffffff16021790555088816000019080519060200190620004e592919062000ac0565b50878160010190805190602001906200050092919062000ac0565b50868160020160006101000a81548173ffffffffffffffffffffffffffffffffffffffff021916908373ffffffffffffffffffffffffffffffffffffffff160217905550858160040181905550848160060181905550838160070181905550670de0b6b3a7640000836200057591906200140b565b8160080181905550600460008154809291906200059290620015f2565b91905055507f9bbdddb9f6bbcb119f5f6d46d106dab175d6ab8b81cee5fc5fbe17fdfc315d7189600360009054906101000a900473ffffffffffffffffffffffffffffffffffffffff1688604051620005ee939291906200116b565b60405180910390a16001915050979650505050505050565b60606000808373ffffffffffffffffffffffffffffffffffffffff1673ffffffffffffffffffffffffffffffffffffffff168152602001908152602001600020805480602002602001604051908101604052809291908181526020018280548015620006c857602002820191906000526020600020905b8160009054906101000a900473ffffffffffffffffffffffffffffffffffffffff1673ffffffffffffffffffffffffffffffffffffffff16815260200190600101908083116200067d575b50505050509050919050565b60006005600084815260200190815260200160002090508060060154421162000734576040517f08c379a00000000000000000000000000000000000000000000000000000000081526004016200072b90620012a0565b60405180910390fd5b806007015442106200077d576040517f08c379a000000000000000000000000000000000000000000000000000000000815260040162000774906200127e565b60405180910390fd5b60008490508073ffffffffffffffffffffffffffffffffffffffff166323b872dd338460030160009054906101000a900473ffffffffffffffffffffffffffffffffffffffff16866040518463ffffffff1660e01b8152600401620007e593929190620010ed565b602060405180830381600087803b1580156200080057600080fd5b505af115801562000815573d6000803e3d6000fd5b505050506040513d601f19601f820116820180604052508101906200083b919062000d42565b508282600501600082825462000852919062001376565b9250508190555060008260080154846200086d9190620013d3565b9050808360090160003373ffffffffffffffffffffffffffffffffffffffff1673ffffffffffffffffffffffffffffffffffffffff16815260200190815260200160002081905550505050505050565b600080848484604051620008d19062000b51565b620008df9392919062001043565b604051809103906000f080158015620008fc573d6000803e3d6000fd5b5090506000808673ffffffffffffffffffffffffffffffffffffffff1673ffffffffffffffffffffffffffffffffffffffff168152602001908152602001600020819080600181540180825580915050600190039060005260206000200160009091909190916101000a81548173ffffffffffffffffffffffffffffffffffffffff021916908373ffffffffffffffffffffffffffffffffffffffff1602179055508373ffffffffffffffffffffffffffffffffffffffff168573ffffffffffffffffffffffffffffffffffffffff161462000a72576000808573ffffffffffffffffffffffffffffffffffffffff1673ffffffffffffffffffffffffffffffffffffffff168152602001908152602001600020819080600181540180825580915050600190039060005260206000200160009091909190916101000a81548173ffffffffffffffffffffffffffffffffffffffff021916908373ffffffffffffffffffffffffffffffffffffffff1602179055505b7f14d5db8c1f746c7adcbcd13cf8945dd2ac6ad58be52380b8c4933c876f76e1bf81338642873460405162000aad9695949392919062001080565b60405180910390a1809150509392505050565b82805462000ace9062001586565b90600052602060002090601f01602090048101928262000af2576000855562000b3e565b82601f1062000b0d57805160ff191683800117855562000b3e565b8280016001018555821562000b3e579182015b8281111562000b3d57825182559160200191906001019062000b20565b5b50905062000b4d919062000b5f565b5090565b610d46806200182b83390190565b5b8082111562000b7a57600081600090555060010162000b60565b5090565b600062000b9562000b8f84620012eb565b620012c2565b90508281526020810184848401111562000bb45762000bb362001701565b5b62000bc184828562001541565b509392505050565b60008135905062000bda81620017c2565b92915050565b60008135905062000bf181620017dc565b92915050565b60008151905062000c0881620017f6565b92915050565b600082601f83011262000c265762000c25620016fc565b5b813562000c3884826020860162000b7e565b91505092915050565b60008135905062000c528162001810565b92915050565b60006020828403121562000c715762000c706200170b565b5b600062000c818482850162000bc9565b91505092915050565b60008060006060848603121562000ca65762000ca56200170b565b5b600062000cb68682870162000bc9565b935050602062000cc98682870162000be0565b925050604062000cdc8682870162000c41565b9150509250925092565b60008060006060848603121562000d025762000d016200170b565b5b600062000d128682870162000bc9565b935050602062000d258682870162000c41565b925050604062000d388682870162000c41565b9150509250925092565b60006020828403121562000d5b5762000d5a6200170b565b5b600062000d6b8482850162000bf7565b91505092915050565b600080600080600080600060e0888a03121562000d965762000d956200170b565b5b600088013567ffffffffffffffff81111562000db75762000db662001706565b5b62000dc58a828b0162000c0e565b975050602088013567ffffffffffffffff81111562000de95762000de862001706565b5b62000df78a828b0162000c0e565b965050604062000e0a8a828b0162000be0565b955050606062000e1d8a828b0162000c41565b945050608062000e308a828b0162000c41565b93505060a062000e438a828b0162000c41565b92505060c062000e568a828b0162000c41565b91505092959891949750929550565b60006020828403121562000e7e5762000e7d6200170b565b5b600062000e8e8482850162000c41565b91505092915050565b600062000ea5838362000ec2565b60208301905092915050565b62000ebc8162001505565b82525050565b62000ecd81620014a7565b82525050565b62000ede81620014a7565b82525050565b600062000ef18262001331565b62000efd818562001354565b935062000f0a8362001321565b8060005b8381101562000f4157815162000f25888262000e97565b975062000f328362001347565b92505060018101905062000f0e565b5085935050505092915050565b62000f5981620014cf565b82525050565b600062000f6c826200133c565b62000f78818562001365565b935062000f8a81856020860162001550565b62000f958162001710565b840191505092915050565b600062000faf60218362001365565b915062000fbc8262001721565b604082019050919050565b600062000fd660118362001365565b915062000fe38262001770565b602082019050919050565b600062000ffd60178362001365565b91506200100a8262001799565b602082019050919050565b6200102081620014fb565b82525050565b60006020820190506200103d600083018462000ed3565b92915050565b60006060820190506200105a600083018662000ed3565b62001069602083018562000eb1565b62001078604083018462001015565b949350505050565b600060c08201905062001097600083018962000ed3565b620010a6602083018862000ed3565b620010b5604083018762000eb1565b620010c4606083018662001015565b620010d3608083018562001015565b620010e260a083018462001015565b979650505050505050565b600060608201905062001104600083018662000ed3565b62001113602083018562000ed3565b62001122604083018462001015565b949350505050565b6000602082019050818103600083015262001146818462000ee4565b905092915050565b600060208201905062001165600083018462000f4e565b92915050565b6000606082019050818103600083015262001187818662000f5f565b905062001198602083018562000ed3565b620011a7604083018462001015565b949350505050565b6000610120820190508181036000830152620011cc818c62000f5f565b90508181036020830152620011e2818b62000f5f565b9050620011f3604083018a62000ed3565b62001202606083018962000ed3565b62001211608083018862001015565b6200122060a083018762001015565b6200122f60c083018662001015565b6200123e60e083018562001015565b6200124e61010083018462001015565b9a9950505050505050505050565b60006020820190508181036000830152620012778162000fa0565b9050919050565b60006020820190508181036000830152620012998162000fc7565b9050919050565b60006020820190508181036000830152620012bb8162000fee565b9050919050565b6000620012ce620012e1565b9050620012dc8282620015bc565b919050565b6000604051905090565b600067ffffffffffffffff821115620013095762001308620016cd565b5b620013148262001710565b9050602081019050919050565b6000819050602082019050919050565b600081519050919050565b600081519050919050565b6000602082019050919050565b600082825260208201905092915050565b600082825260208201905092915050565b60006200138382620014fb565b91506200139083620014fb565b9250827fffffffffffffffffffffffffffffffffffffffffffffffffffffffffffffffff03821115620013c857620013c762001640565b5b828201905092915050565b6000620013e082620014fb565b9150620013ed83620014fb565b9250826200140057620013ff6200166f565b5b828204905092915050565b60006200141882620014fb565b91506200142583620014fb565b9250817fffffffffffffffffffffffffffffffffffffffffffffffffffffffffffffffff048311821515161562001461576200146062001640565b5b828202905092915050565b60006200147982620014fb565b91506200148683620014fb565b9250828210156200149c576200149b62001640565b5b828203905092915050565b6000620014b482620014db565b9050919050565b6000620014c882620014db565b9050919050565b60008115159050919050565b600073ffffffffffffffffffffffffffffffffffffffff82169050919050565b6000819050919050565b6000620015128262001519565b9050919050565b600062001526826200152d565b9050919050565b60006200153a82620014db565b9050919050565b82818337600083830152505050565b60005b838110156200157057808201518184015260208101905062001553565b8381111562001580576000848401525b50505050565b600060028204905060018216806200159f57607f821691505b60208210811415620015b657620015b56200169e565b5b50919050565b620015c78262001710565b810181811067ffffffffffffffff82111715620015e957620015e8620016cd565b5b80604052505050565b6000620015ff82620014fb565b91507fffffffffffffffffffffffffffffffffffffffffffffffffffffffffffffffff82141562001635576200163462001640565b5b600182019050919050565b7f4e487b7100000000000000000000000000000000000000000000000000000000600052601160045260246000fd5b7f4e487b7100000000000000000000000000000000000000000000000000000000600052601260045260246000fd5b7f4e487b7100000000000000000000000000000000000000000000000000000000600052602260045260246000fd5b7f4e487b7100000000000000000000000000000000000000000000000000000000600052604160045260246000fd5b600080fd5b600080fd5b600080fd5b600080fd5b6000601f19601f8301169050919050565b7f4f6e6c792041646d696e2063616e2063616c6c20746869732066756e6374696f60008201527f6e00000000000000000000000000000000000000000000000000000000000000602082015250565b7f46756e64696e672068617320656e646564000000000000000000000000000000600082015250565b7f46756e64696e6720686173206e6f742073746172746564000000000000000000600082015250565b620017cd81620014a7565b8114620017d957600080fd5b50565b620017e781620014bb565b8114620017f357600080fd5b50565b6200180181620014cf565b81146200180d57600080fd5b50565b6200181b81620014fb565b81146200182757600080fd5b5056fe60806040523480156200001157600080fd5b5060405162000d4638038062000d468339818101604052810190620000379190620000fd565b826000806101000a81548173ffffffffffffffffffffffffffffffffffffffff021916908373ffffffffffffffffffffffffffffffffffffffff16021790555081600160006101000a81548173ffffffffffffffffffffffffffffffffffffffff021916908373ffffffffffffffffffffffffffffffffffffffff1602179055508060028190555042600381905550505050620001d0565b600081519050620000e0816200019c565b92915050565b600081519050620000f781620001b6565b92915050565b60008060006060848603121562000119576200011862000197565b5b60006200012986828701620000cf565b93505060206200013c86828701620000cf565b92505060406200014f86828701620000e6565b9150509250925092565b600062000166826200016d565b9050919050565b600073ffffffffffffffffffffffffffffffffffffffff82169050919050565b6000819050919050565b600080fd5b620001a78162000159565b8114620001b357600080fd5b50565b620001c1816200018d565b8114620001cd57600080fd5b50565b610b6680620001e06000396000f3fe60806040526004361061008a5760003560e01c806349df728c1161005957806349df728c1461016857806369ac57211461019157806370a08231146101bc5780638da5cb5b146101f9578063cf09e0d014610224576100ca565b806302d05d3f146100cf578063370158ea146100fa5780633ccfd60b1461012857806347e7ef241461013f576100ca565b366100ca577f88a5966d370b9919b20f3e2c13ff65706f196a4e32cc2c12bf57088f8852587433346040516100c09291906109b7565b60405180910390a1005b600080fd5b3480156100db57600080fd5b506100e461024f565b6040516100f19190610920565b60405180910390f35b34801561010657600080fd5b5061010f610273565b60405161011f9493929190610972565b60405180910390f35b34801561013457600080fd5b5061013d6102d1565b005b34801561014b57600080fd5b5061016660048036038101906101619190610822565b6103bc565b005b34801561017457600080fd5b5061018f600480360381019061018a91906107f5565b610499565b005b34801561019d57600080fd5b506101a66106d2565b6040516101b39190610a20565b60405180910390f35b3480156101c857600080fd5b506101e360048036038101906101de91906107f5565b6106d8565b6040516101f09190610a20565b60405180910390f35b34801561020557600080fd5b5061020e610775565b60405161021b9190610920565b60405180910390f35b34801561023057600080fd5b5061023961079b565b6040516102469190610a20565b60405180910390f35b60008054906101000a900473ffffffffffffffffffffffffffffffffffffffff1681565b60008060008060008054906101000a900473ffffffffffffffffffffffffffffffffffffffff16600160009054906101000a900473ffffffffffffffffffffffffffffffffffffffff16600254600354935093509350935090919293565b600160009054906101000a900473ffffffffffffffffffffffffffffffffffffffff1673ffffffffffffffffffffffffffffffffffffffff163373ffffffffffffffffffffffffffffffffffffffff161461032b57600080fd5b60025442101561033a57600080fd5b3373ffffffffffffffffffffffffffffffffffffffff166108fc479081150290604051600060405180830381858888f19350505050158015610380573d6000803e3d6000fd5b507fb244b9a17ad633c6e83b7983ee04320484956a68ddbe96a0b70dfca1cf19d72333476040516103b29291906109b7565b60405180910390a1565b600081116103ff576040517f08c379a00000000000000000000000000000000000000000000000000000000081526004016103f6906109e0565b60405180910390fd5b60008290508073ffffffffffffffffffffffffffffffffffffffff166323b872dd3330856040518463ffffffff1660e01b81526004016104419392919061093b565b602060405180830381600087803b15801561045b57600080fd5b505af115801561046f573d6000803e3d6000fd5b505050506040513d601f19601f820116820180604052508101906104939190610862565b50505050565b600160009054906101000a900473ffffffffffffffffffffffffffffffffffffffff1673ffffffffffffffffffffffffffffffffffffffff163373ffffffffffffffffffffffffffffffffffffffff16146104f357600080fd5b600073ffffffffffffffffffffffffffffffffffffffff168173ffffffffffffffffffffffffffffffffffffffff161415610563576040517f08c379a000000000000000000000000000000000000000000000000000000000815260040161055a90610a00565b60405180910390fd5b60025442101561057257600080fd5b600081905060008173ffffffffffffffffffffffffffffffffffffffff166370a08231306040518263ffffffff1660e01b81526004016105b29190610920565b60206040518083038186803b1580156105ca57600080fd5b505afa1580156105de573d6000803e3d6000fd5b505050506040513d601f19601f82011682018060405250810190610602919061088f565b90508173ffffffffffffffffffffffffffffffffffffffff1663a9059cbb33836040518363ffffffff1660e01b815260040161063f9291906109b7565b602060405180830381600087803b15801561065957600080fd5b505af115801561066d573d6000803e3d6000fd5b505050506040513d601f19601f820116820180604052508101906106919190610862565b507fa04c965e7d289704527a948915777d68bb4530fb4b08aa935fb958c0b7901ab98333836040516106c59392919061093b565b60405180910390a1505050565b60025481565b60008082905060008173ffffffffffffffffffffffffffffffffffffffff166370a08231306040518263ffffffff1660e01b81526004016107199190610920565b60206040518083038186803b15801561073157600080fd5b505afa158015610745573d6000803e3d6000fd5b505050506040513d601f19601f82011682018060405250810190610769919061088f565b90508092505050919050565b600160009054906101000a900473ffffffffffffffffffffffffffffffffffffffff1681565b60035481565b6000813590506107b081610aeb565b92915050565b6000815190506107c581610b02565b92915050565b6000813590506107da81610b19565b92915050565b6000815190506107ef81610b19565b92915050565b60006020828403121561080b5761080a610a94565b5b6000610819848285016107a1565b91505092915050565b6000806040838503121561083957610838610a94565b5b6000610847858286016107a1565b9250506020610858858286016107cb565b9150509250929050565b60006020828403121561087857610877610a94565b5b6000610886848285016107b6565b91505092915050565b6000602082840312156108a5576108a4610a94565b5b60006108b3848285016107e0565b91505092915050565b6108c581610a4c565b82525050565b60006108d8600d83610a3b565b91506108e382610a99565b602082019050919050565b60006108fb600f83610a3b565b915061090682610ac2565b602082019050919050565b61091a81610a8a565b82525050565b600060208201905061093560008301846108bc565b92915050565b600060608201905061095060008301866108bc565b61095d60208301856108bc565b61096a6040830184610911565b949350505050565b600060808201905061098760008301876108bc565b61099460208301866108bc565b6109a16040830185610911565b6109ae6060830184610911565b95945050505050565b60006040820190506109cc60008301856108bc565b6109d96020830184610911565b9392505050565b600060208201905081810360008301526109f9816108cb565b9050919050565b60006020820190508181036000830152610a19816108ee565b9050919050565b6000602082019050610a356000830184610911565b92915050565b600082825260208201905092915050565b6000610a5782610a6a565b9050919050565b60008115159050919050565b600073ffffffffffffffffffffffffffffffffffffffff82169050919050565b6000819050919050565b600080fd5b7f696e76616c69642076616c756500000000000000000000000000000000000000600082015250565b7f546f6b656e206e6f7420666f756e640000000000000000000000000000000000600082015250565b610af481610a4c565b8114610aff57600080fd5b50565b610b0b81610a5e565b8114610b1657600080fd5b50565b610b2281610a8a565b8114610b2d57600080fd5b5056fea26469706673582212208b962e8b53ad8459b05f74a81093f50f4a5b2cf5af9a92f45cddd3bc92a0b59864736f6c63430008060033a2646970667358221220d146dcb1c515383b4b75f9ed20536351509979178b10eca4e3b658a668e1bda464736f6c63430008060033",
  "immutableReferences": {},
  "source": "// SPDX-License-Identifier: GPL-3.0\npragma solidity ^0.8.0;\nimport \"./TimeLockedWalletFactory.sol\";\nimport \"@openzeppelin/contracts/token/ERC20/IERC20.sol\";\n\ncontract FundProject is TimeLockedWalletFactory{\n    uint maxFundingPeriod;\n    address admin;\n    address wallet;\n    uint projectId;\n    \n    struct Project {\n        string projectName;\n        string projectDescription;\n        address projectOwner;\n        address projectWallet;\n        uint fundRequested;\n        uint fundRaised;\n        uint fundingStartDate;\n        uint fundingEndDate;\n        uint unitPrice;\n        mapping (address => uint) contributorsToToken;\n        address[] contributors;\n    }\n    mapping(uint => Project ) public OwnerToProject;\n    constructor (address _admin) {\n        maxFundingPeriod = 2592000; //30days\n        admin = _admin;\n    }\n    modifier onlyAdmin(){\n        require(msg.sender == admin, \"Only Admin can call this function\");\n        _;\n    }\n    event createdProject (string projectName, address wallet, uint fundRequested);\n    function createProject(\n        string memory _projectName,\n        string memory _projectDescription,\n        address payable _projectOwner,\n        uint _fundRequested,\n        uint _fundingStartDate,\n        uint _fundingEndDate,\n        uint _unitPrice) public onlyAdmin returns (bool success){\n          require ((_fundingEndDate - _fundingStartDate) < maxFundingPeriod);\n          wallet = TimeLockedWalletFactory.newTimeLockedWallet(admin, _projectOwner, _fundingEndDate);\n          Project storage project =  OwnerToProject[projectId];\n          project.projectWallet = wallet;\n          project.projectName = _projectName;\n          project.projectDescription = _projectDescription;\n          project.projectOwner = _projectOwner;\n          project.fundRequested = _fundRequested;\n          project.fundingStartDate = _fundingStartDate;\n          project.fundingEndDate = _fundingEndDate;\n          project.unitPrice = _unitPrice * 10**18;\n          projectId++;\n          emit createdProject (_projectName, wallet, _fundRequested);\n          return true;\n        }\n    function fundProject(address _tokenContract,uint _projectId, uint amount) public payable {\n        Project storage project =  OwnerToProject[_projectId];\n        require (block.timestamp > project.fundingStartDate, \"Funding has not started\");\n        require (block.timestamp < project.fundingEndDate, \"Funding has ended\");\n        IERC20 token = IERC20(_tokenContract);\n        token.transferFrom(msg.sender, project.projectWallet, amount);\n        project.fundRaised += amount;\n        uint numberOfToken = amount / project.unitPrice;\n        project.contributorsToToken[msg.sender] = numberOfToken;\n    }\n}",
  "sourcePath": "C:\\Users\\user\\Desktop\\HalogenFinance\\contracts\\project.sol",
  "compiler": {
    "name": "solc",
    "version": "0.8.6+commit.11564f7e.Emscripten.clang"
  },
  "schemaVersion": "3.4.2",
  "updatedAt": "2021-08-08T22:46:24.006Z",
  "devdoc": {
    "kind": "dev",
    "methods": {},
    "version": 1
  },
  "userdoc": {
    "kind": "user",
    "methods": {},
    "version": 1
  }
}