{
  "contractName": "TimeLockedWallet",
  "abi": [
    {
      "inputs": [
        {
          "internalType": "address",
          "name": "_creator",
          "type": "address"
        },
        {
          "internalType": "address",
          "name": "_owner",
          "type": "address"
        },
        {
          "internalType": "uint256",
          "name": "_unlockDate",
          "type": "uint256"
        }
      ],
      "stateMutability": "nonpayable",
      "type": "constructor"
    },
    {
      "anonymous": false,
      "inputs": [
        {
          "indexed": false,
          "internalType": "address",
          "name": "_from",
          "type": "address"
        },
        {
          "indexed": false,
          "internalType": "uint256",
          "name": "_amount",
          "type": "uint256"
        }
      ],
      "name": "Received",
      "type": "event"
    },
    {
      "anonymous": false,
      "inputs": [
        {
          "indexed": false,
          "internalType": "address",
          "name": "_to",
          "type": "address"
        },
        {
          "indexed": false,
          "internalType": "uint256",
          "name": "_amount",
          "type": "uint256"
        }
      ],
      "name": "Withdrew",
      "type": "event"
    },
    {
      "anonymous": false,
      "inputs": [
        {
          "indexed": false,
          "internalType": "address",
          "name": "_tokenContract",
          "type": "address"
        },
        {
          "indexed": false,
          "internalType": "address",
          "name": "_to",
          "type": "address"
        },
        {
          "indexed": false,
          "internalType": "uint256",
          "name": "_amount",
          "type": "uint256"
        }
      ],
      "name": "WithdrewTokens",
      "type": "event"
    },
    {
      "inputs": [],
      "name": "createdAt",
      "outputs": [
        {
          "internalType": "uint256",
          "name": "",
          "type": "uint256"
        }
      ],
      "stateMutability": "view",
      "type": "function"
    },
    {
      "inputs": [],
      "name": "creator",
      "outputs": [
        {
          "internalType": "address",
          "name": "",
          "type": "address"
        }
      ],
      "stateMutability": "view",
      "type": "function"
    },
    {
      "inputs": [],
      "name": "owner",
      "outputs": [
        {
          "internalType": "address",
          "name": "",
          "type": "address"
        }
      ],
      "stateMutability": "view",
      "type": "function"
    },
    {
      "inputs": [],
      "name": "unlockDate",
      "outputs": [
        {
          "internalType": "uint256",
          "name": "",
          "type": "uint256"
        }
      ],
      "stateMutability": "view",
      "type": "function"
    },
    {
      "stateMutability": "payable",
      "type": "receive"
    },
    {
      "inputs": [],
      "name": "info",
      "outputs": [
        {
          "internalType": "address",
          "name": "",
          "type": "address"
        },
        {
          "internalType": "address",
          "name": "",
          "type": "address"
        },
        {
          "internalType": "uint256",
          "name": "",
          "type": "uint256"
        },
        {
          "internalType": "uint256",
          "name": "",
          "type": "uint256"
        }
      ],
      "stateMutability": "view",
      "type": "function"
    },
    {
      "inputs": [],
      "name": "withdraw",
      "outputs": [],
      "stateMutability": "nonpayable",
      "type": "function"
    },
    {
      "inputs": [
        {
          "internalType": "address",
          "name": "_tokenContract",
          "type": "address"
        }
      ],
      "name": "withdrawTokens",
      "outputs": [],
      "stateMutability": "nonpayable",
      "type": "function"
    },
    {
      "inputs": [
        {
          "internalType": "address",
          "name": "_tokenContract",
          "type": "address"
        },
        {
          "internalType": "uint256",
          "name": "_amount",
          "type": "uint256"
        }
      ],
      "name": "deposit",
      "outputs": [],
      "stateMutability": "nonpayable",
      "type": "function"
    },
    {
      "inputs": [
        {
          "internalType": "address",
          "name": "_tokenContract",
          "type": "address"
        }
      ],
      "name": "balanceOf",
      "outputs": [
        {
          "internalType": "uint256",
          "name": "",
          "type": "uint256"
        }
      ],
      "stateMutability": "view",
      "type": "function"
    }
  ],
  "bytecode": "0x60806040523480156200001157600080fd5b5060405162000d4638038062000d468339818101604052810190620000379190620000fd565b826000806101000a81548173ffffffffffffffffffffffffffffffffffffffff021916908373ffffffffffffffffffffffffffffffffffffffff16021790555081600160006101000a81548173ffffffffffffffffffffffffffffffffffffffff021916908373ffffffffffffffffffffffffffffffffffffffff1602179055508060028190555042600381905550505050620001d0565b600081519050620000e0816200019c565b92915050565b600081519050620000f781620001b6565b92915050565b60008060006060848603121562000119576200011862000197565b5b60006200012986828701620000cf565b93505060206200013c86828701620000cf565b92505060406200014f86828701620000e6565b9150509250925092565b600062000166826200016d565b9050919050565b600073ffffffffffffffffffffffffffffffffffffffff82169050919050565b6000819050919050565b600080fd5b620001a78162000159565b8114620001b357600080fd5b50565b620001c1816200018d565b8114620001cd57600080fd5b50565b610b6680620001e06000396000f3fe60806040526004361061008a5760003560e01c806349df728c1161005957806349df728c1461016857806369ac57211461019157806370a08231146101bc5780638da5cb5b146101f9578063cf09e0d014610224576100ca565b806302d05d3f146100cf578063370158ea146100fa5780633ccfd60b1461012857806347e7ef241461013f576100ca565b366100ca577f88a5966d370b9919b20f3e2c13ff65706f196a4e32cc2c12bf57088f8852587433346040516100c09291906109b7565b60405180910390a1005b600080fd5b3480156100db57600080fd5b506100e461024f565b6040516100f19190610920565b60405180910390f35b34801561010657600080fd5b5061010f610273565b60405161011f9493929190610972565b60405180910390f35b34801561013457600080fd5b5061013d6102d1565b005b34801561014b57600080fd5b5061016660048036038101906101619190610822565b6103bc565b005b34801561017457600080fd5b5061018f600480360381019061018a91906107f5565b610499565b005b34801561019d57600080fd5b506101a66106d2565b6040516101b39190610a20565b60405180910390f35b3480156101c857600080fd5b506101e360048036038101906101de91906107f5565b6106d8565b6040516101f09190610a20565b60405180910390f35b34801561020557600080fd5b5061020e610775565b60405161021b9190610920565b60405180910390f35b34801561023057600080fd5b5061023961079b565b6040516102469190610a20565b60405180910390f35b60008054906101000a900473ffffffffffffffffffffffffffffffffffffffff1681565b60008060008060008054906101000a900473ffffffffffffffffffffffffffffffffffffffff16600160009054906101000a900473ffffffffffffffffffffffffffffffffffffffff16600254600354935093509350935090919293565b600160009054906101000a900473ffffffffffffffffffffffffffffffffffffffff1673ffffffffffffffffffffffffffffffffffffffff163373ffffffffffffffffffffffffffffffffffffffff161461032b57600080fd5b60025442101561033a57600080fd5b3373ffffffffffffffffffffffffffffffffffffffff166108fc479081150290604051600060405180830381858888f19350505050158015610380573d6000803e3d6000fd5b507fb244b9a17ad633c6e83b7983ee04320484956a68ddbe96a0b70dfca1cf19d72333476040516103b29291906109b7565b60405180910390a1565b600081116103ff576040517f08c379a00000000000000000000000000000000000000000000000000000000081526004016103f6906109e0565b60405180910390fd5b60008290508073ffffffffffffffffffffffffffffffffffffffff166323b872dd3330856040518463ffffffff1660e01b81526004016104419392919061093b565b602060405180830381600087803b15801561045b57600080fd5b505af115801561046f573d6000803e3d6000fd5b505050506040513d601f19601f820116820180604052508101906104939190610862565b50505050565b600160009054906101000a900473ffffffffffffffffffffffffffffffffffffffff1673ffffffffffffffffffffffffffffffffffffffff163373ffffffffffffffffffffffffffffffffffffffff16146104f357600080fd5b600073ffffffffffffffffffffffffffffffffffffffff168173ffffffffffffffffffffffffffffffffffffffff161415610563576040517f08c379a000000000000000000000000000000000000000000000000000000000815260040161055a90610a00565b60405180910390fd5b60025442101561057257600080fd5b600081905060008173ffffffffffffffffffffffffffffffffffffffff166370a08231306040518263ffffffff1660e01b81526004016105b29190610920565b60206040518083038186803b1580156105ca57600080fd5b505afa1580156105de573d6000803e3d6000fd5b505050506040513d601f19601f82011682018060405250810190610602919061088f565b90508173ffffffffffffffffffffffffffffffffffffffff1663a9059cbb33836040518363ffffffff1660e01b815260040161063f9291906109b7565b602060405180830381600087803b15801561065957600080fd5b505af115801561066d573d6000803e3d6000fd5b505050506040513d601f19601f820116820180604052508101906106919190610862565b507fa04c965e7d289704527a948915777d68bb4530fb4b08aa935fb958c0b7901ab98333836040516106c59392919061093b565b60405180910390a1505050565b60025481565b60008082905060008173ffffffffffffffffffffffffffffffffffffffff166370a08231306040518263ffffffff1660e01b81526004016107199190610920565b60206040518083038186803b15801561073157600080fd5b505afa158015610745573d6000803e3d6000fd5b505050506040513d601f19601f82011682018060405250810190610769919061088f565b90508092505050919050565b600160009054906101000a900473ffffffffffffffffffffffffffffffffffffffff1681565b60035481565b6000813590506107b081610aeb565b92915050565b6000815190506107c581610b02565b92915050565b6000813590506107da81610b19565b92915050565b6000815190506107ef81610b19565b92915050565b60006020828403121561080b5761080a610a94565b5b6000610819848285016107a1565b91505092915050565b6000806040838503121561083957610838610a94565b5b6000610847858286016107a1565b9250506020610858858286016107cb565b9150509250929050565b60006020828403121561087857610877610a94565b5b6000610886848285016107b6565b91505092915050565b6000602082840312156108a5576108a4610a94565b5b60006108b3848285016107e0565b91505092915050565b6108c581610a4c565b82525050565b60006108d8600d83610a3b565b91506108e382610a99565b602082019050919050565b60006108fb600f83610a3b565b915061090682610ac2565b602082019050919050565b61091a81610a8a565b82525050565b600060208201905061093560008301846108bc565b92915050565b600060608201905061095060008301866108bc565b61095d60208301856108bc565b61096a6040830184610911565b949350505050565b600060808201905061098760008301876108bc565b61099460208301866108bc565b6109a16040830185610911565b6109ae6060830184610911565b95945050505050565b60006040820190506109cc60008301856108bc565b6109d96020830184610911565b9392505050565b600060208201905081810360008301526109f9816108cb565b9050919050565b60006020820190508181036000830152610a19816108ee565b9050919050565b6000602082019050610a356000830184610911565b92915050565b600082825260208201905092915050565b6000610a5782610a6a565b9050919050565b60008115159050919050565b600073ffffffffffffffffffffffffffffffffffffffff82169050919050565b6000819050919050565b600080fd5b7f696e76616c69642076616c756500000000000000000000000000000000000000600082015250565b7f546f6b656e206e6f7420666f756e640000000000000000000000000000000000600082015250565b610af481610a4c565b8114610aff57600080fd5b50565b610b0b81610a5e565b8114610b1657600080fd5b50565b610b2281610a8a565b8114610b2d57600080fd5b5056fea2646970667358221220cf09219711576ccb1b048714e9b26be85fcbaf489a63157521317d39f037fdfa64736f6c63430008060033",
  "immutableReferences": {},
  "source": "// SPDX-License-Identifier: GPL-3.0;\npragma solidity ^0.8.0;\nimport \"@openzeppelin/contracts/token/ERC20/IERC20.sol\";\n\ncontract TimeLockedWallet {\n    address public creator;\n    address public owner;\n    uint256 public unlockDate;\n    uint256 public createdAt;\n    event Received(address _from, uint _amount);\n    event Withdrew(address _to, uint _amount);\n    event WithdrewTokens(address _tokenContract, address _to, uint _amount);\n    \n    modifier onlyOwner {\n        require(msg.sender == owner);\n            _;\n    }\n    receive() external payable{\n        emit Received(msg.sender, msg.value);\n    }\n    constructor (address _creator, address _owner, uint _unlockDate) {\n        creator = _creator;\n        owner = _owner;\n        unlockDate = _unlockDate;\n        createdAt = block.timestamp;\n    }\n    \n    function info() public view returns(address, address, uint, uint) {\n        return (creator, owner, unlockDate, createdAt);\n    }\n    \n    function withdraw() onlyOwner public {\n        require(block.timestamp >= unlockDate);\n        payable(msg.sender).transfer(address(this).balance);\n        emit Withdrew(msg.sender, address(this).balance);\n    }\n    \n    function withdrawTokens(address _tokenContract) onlyOwner public {\n        require(_tokenContract != address(0), \"Token not found\");\n        require(block.timestamp >= unlockDate);\n        IERC20 token = IERC20(_tokenContract);\n        uint tokenBalance = token.balanceOf(address(this));\n        token.transfer(msg.sender, tokenBalance);\n        emit WithdrewTokens(_tokenContract, msg.sender, tokenBalance);\n    }\n    \n    function deposit(address _tokenContract, uint _amount) public {\n        require(_amount > 0, \"invalid value\");\n        IERC20 token = IERC20(_tokenContract);\n        token.transferFrom(msg.sender, address(this), _amount);\n    }\n    \n    function balanceOf(address _tokenContract) public view returns(uint){\n        IERC20 token = IERC20(_tokenContract);\n        uint tokenBalance = token.balanceOf(address(this));\n        return tokenBalance;\n    }\n}\n",
  "sourcePath": "C:\\Users\\user\\Desktop\\HalogenFinance\\contracts\\timeLockedWallet.sol",
  "compiler": {
    "name": "solc",
    "version": "0.8.6+commit.11564f7e.Emscripten.clang"
  },
  "schemaVersion": "3.4.2",
  "updatedAt": "2021-08-08T22:46:23.848Z",
  "devdoc": {
    "kind": "dev",
    "methods": {},
    "version": 1
  },
  "userdoc": {
    "kind": "user",
    "methods": {},
    "version": 1
  }
}